{
  "contractName": "BMCTM",
  "abi": [
    {
      "constant": true,
      "inputs": [
        {
          "internalType": "address",
          "name": "",
          "type": "address"
        }
      ],
      "name": "fogDeviceMapping",
      "outputs": [
        {
          "internalType": "address",
          "name": "",
          "type": "address"
        }
      ],
      "payable": false,
      "stateMutability": "view",
      "type": "function"
    },
    {
      "constant": true,
      "inputs": [
        {
          "internalType": "address",
          "name": "",
          "type": "address"
        }
      ],
      "name": "fogNodes",
      "outputs": [
        {
          "internalType": "uint256",
          "name": "fogName",
          "type": "uint256"
        },
        {
          "internalType": "address",
          "name": "fogAddress",
          "type": "address"
        }
      ],
      "payable": false,
      "stateMutability": "view",
      "type": "function"
    },
    {
      "constant": true,
      "inputs": [
        {
          "internalType": "address",
          "name": "",
          "type": "address"
        }
      ],
      "name": "iotNodes",
      "outputs": [
        {
          "internalType": "uint256",
          "name": "nodeName",
          "type": "uint256"
        },
        {
          "internalType": "uint256",
          "name": "nodeSystem",
          "type": "uint256"
        },
        {
          "internalType": "uint8",
          "name": "nodeTrust",
          "type": "uint8"
        },
        {
          "internalType": "address",
          "name": "nodeAddress",
          "type": "address"
        },
        {
          "internalType": "address",
          "name": "fogAddress",
          "type": "address"
        }
      ],
      "payable": false,
      "stateMutability": "view",
      "type": "function"
    },
    {
      "constant": true,
      "inputs": [
        {
          "internalType": "uint256",
          "name": "",
          "type": "uint256"
        }
      ],
      "name": "nodeIds",
      "outputs": [
        {
          "internalType": "uint256",
          "name": "",
          "type": "uint256"
        }
      ],
      "payable": false,
      "stateMutability": "view",
      "type": "function"
    },
    {
      "constant": true,
      "inputs": [],
      "name": "totalFogNodes",
      "outputs": [
        {
          "internalType": "uint256",
          "name": "",
          "type": "uint256"
        }
      ],
      "payable": false,
      "stateMutability": "view",
      "type": "function"
    },
    {
      "constant": true,
      "inputs": [],
      "name": "totalIoTDevice",
      "outputs": [
        {
          "internalType": "uint256",
          "name": "",
          "type": "uint256"
        }
      ],
      "payable": false,
      "stateMutability": "view",
      "type": "function"
    },
    {
      "constant": true,
      "inputs": [
        {
          "internalType": "address",
          "name": "",
          "type": "address"
        }
      ],
      "name": "trustMapping",
      "outputs": [
        {
          "internalType": "uint8",
          "name": "",
          "type": "uint8"
        }
      ],
      "payable": false,
      "stateMutability": "view",
      "type": "function"
    },
    {
      "constant": false,
      "inputs": [
        {
          "internalType": "uint256",
          "name": "_fogName",
          "type": "uint256"
        }
      ],
      "name": "addFogNode",
      "outputs": [],
      "payable": false,
      "stateMutability": "nonpayable",
      "type": "function"
    },
    {
      "constant": false,
      "inputs": [
        {
          "internalType": "uint256",
          "name": "_nodeName",
          "type": "uint256"
        },
        {
          "internalType": "uint256",
          "name": "_nodeSystem",
          "type": "uint256"
        },
        {
          "internalType": "address",
          "name": "_fogAddress",
          "type": "address"
        }
      ],
      "name": "addNode",
      "outputs": [],
      "payable": false,
      "stateMutability": "nonpayable",
      "type": "function"
    },
    {
      "constant": false,
      "inputs": [
        {
          "internalType": "uint8",
          "name": "_nodeTrust",
          "type": "uint8"
        },
        {
          "internalType": "uint256",
          "name": "_nodeName",
          "type": "uint256"
        },
        {
          "internalType": "address",
          "name": "_nodeAddress",
          "type": "address"
        },
        {
          "internalType": "uint256",
          "name": "_nodeSystem",
          "type": "uint256"
        }
      ],
      "name": "addDeviceTrust",
      "outputs": [],
      "payable": false,
      "stateMutability": "nonpayable",
      "type": "function"
    },
    {
      "constant": false,
      "inputs": [
        {
          "internalType": "address",
          "name": "_nodeAddress",
          "type": "address"
        }
      ],
      "name": "removeNode",
      "outputs": [],
      "payable": false,
      "stateMutability": "nonpayable",
      "type": "function"
    },
    {
      "constant": true,
      "inputs": [
        {
          "internalType": "address",
          "name": "_nodeAddress",
          "type": "address"
        }
      ],
      "name": "verifyTrust",
      "outputs": [
        {
          "internalType": "uint8",
          "name": "nodeTrust",
          "type": "uint8"
        }
      ],
      "payable": false,
      "stateMutability": "view",
      "type": "function"
    }
  ],
  "bytecode": "0x608060405260008055600060015534801561001957600080fd5b50611586806100296000396000f3fe608060405234801561001057600080fd5b50600436106100b45760003560e01c80639854316611610071578063985431661461038b578063b2b99ec9146103cd578063bf6c727e14610411578063c4ec2b851461046f578063cd9628411461048d578063d8381dce146104e5576100b4565b80630a2d518a146100b9578063262a71141461014457806359ab0abf146101a25780636bcdc55a146102745780637cbce6e7146102a25780638e649d2b14610326575b600080fd5b6100fb600480360360208110156100cf57600080fd5b81019080803573ffffffffffffffffffffffffffffffffffffffff169060200190929190505050610503565b604051808381526020018273ffffffffffffffffffffffffffffffffffffffff1673ffffffffffffffffffffffffffffffffffffffff1681526020019250505060405180910390f35b6101866004803603602081101561015a57600080fd5b81019080803573ffffffffffffffffffffffffffffffffffffffff169060200190929190505050610547565b604051808260ff1660ff16815260200191505060405180910390f35b6101e4600480360360208110156101b857600080fd5b81019080803573ffffffffffffffffffffffffffffffffffffffff169060200190929190505050610717565b604051808681526020018581526020018460ff1660ff1681526020018373ffffffffffffffffffffffffffffffffffffffff1673ffffffffffffffffffffffffffffffffffffffff1681526020018273ffffffffffffffffffffffffffffffffffffffff1673ffffffffffffffffffffffffffffffffffffffff1681526020019550505050505060405180910390f35b6102a06004803603602081101561028a57600080fd5b810190808035906020019092919050505061079a565b005b6102e4600480360360208110156102b857600080fd5b81019080803573ffffffffffffffffffffffffffffffffffffffff169060200190929190505050610a7b565b604051808273ffffffffffffffffffffffffffffffffffffffff1673ffffffffffffffffffffffffffffffffffffffff16815260200191505060405180910390f35b6103896004803603608081101561033c57600080fd5b81019080803560ff16906020019092919080359060200190929190803573ffffffffffffffffffffffffffffffffffffffff16906020019092919080359060200190929190505050610aae565b005b6103b7600480360360208110156103a157600080fd5b8101908080359060200190929190505050610e73565b6040518082815260200191505060405180910390f35b61040f600480360360208110156103e357600080fd5b81019080803573ffffffffffffffffffffffffffffffffffffffff169060200190929190505050610e8b565b005b6104536004803603602081101561042757600080fd5b81019080803573ffffffffffffffffffffffffffffffffffffffff16906020019092919050505061103d565b604051808260ff1660ff16815260200191505060405180910390f35b61047761105d565b6040518082815260200191505060405180910390f35b6104e3600480360360608110156104a357600080fd5b810190808035906020019092919080359060200190929190803573ffffffffffffffffffffffffffffffffffffffff169060200190929190505050611063565b005b6104ed6114c8565b6040518082815260200191505060405180910390f35b60036020528060005260406000206000915090508060000154908060010160009054906101000a900473ffffffffffffffffffffffffffffffffffffffff16905082565b6000803390506000600260008373ffffffffffffffffffffffffffffffffffffffff1673ffffffffffffffffffffffffffffffffffffffff168152602001908152602001600020600001541415610606576040517f08c379a000000000000000000000000000000000000000000000000000000000815260040180806020018281038252601b8152602001807f52657175657374696e67204e6f6465204e6f742056657266696564000000000081525060200191505060405180910390fd5b6000600260008573ffffffffffffffffffffffffffffffffffffffff1673ffffffffffffffffffffffffffffffffffffffff1681526020019081526020016000206000015414156106bf576040517f08c379a00000000000000000000000000000000000000000000000000000000081526004018080602001828103825260188152602001807f526571756573746564204e6f6465204e6f7420466f756e64000000000000000081525060200191505060405180910390fd5b600260008473ffffffffffffffffffffffffffffffffffffffff1673ffffffffffffffffffffffffffffffffffffffff16815260200190815260200160002060020160009054906101000a900460ff16915050919050565b60026020528060005260406000206000915090508060000154908060010154908060020160009054906101000a900460ff16908060020160019054906101000a900473ffffffffffffffffffffffffffffffffffffffff16908060030160009054906101000a900473ffffffffffffffffffffffffffffffffffffffff16905085565b60003390508073ffffffffffffffffffffffffffffffffffffffff16600360008373ffffffffffffffffffffffffffffffffffffffff1673ffffffffffffffffffffffffffffffffffffffff16815260200190815260200160002060010160009054906101000a900473ffffffffffffffffffffffffffffffffffffffff1673ffffffffffffffffffffffffffffffffffffffff1614156108a3576040517f08c379a000000000000000000000000000000000000000000000000000000000815260040180806020018281038252601c8152602001807f5468697320466f67204e6f646520416c7265616479204578697374730000000081525060200191505060405180910390fd5b8073ffffffffffffffffffffffffffffffffffffffff16600260008373ffffffffffffffffffffffffffffffffffffffff1673ffffffffffffffffffffffffffffffffffffffff16815260200190815260200160002060020160019054906101000a900473ffffffffffffffffffffffffffffffffffffffff1673ffffffffffffffffffffffffffffffffffffffff1614156109a7576040517f08c379a000000000000000000000000000000000000000000000000000000000815260040180806020018281038252601e8152602001807f54686973206973205265676973746572656420417320496f54204e6f6465000081525060200191505060405180910390fd5b60405180604001604052808381526020018273ffffffffffffffffffffffffffffffffffffffff16815250600360008373ffffffffffffffffffffffffffffffffffffffff1673ffffffffffffffffffffffffffffffffffffffff1681526020019081526020016000206000820151816000015560208201518160010160006101000a81548173ffffffffffffffffffffffffffffffffffffffff021916908373ffffffffffffffffffffffffffffffffffffffff1602179055509050506001600081548092919060010191905055505050565b60056020528060005260406000206000915054906101000a900473ffffffffffffffffffffffffffffffffffffffff1681565b60003390508073ffffffffffffffffffffffffffffffffffffffff16600360008373ffffffffffffffffffffffffffffffffffffffff1673ffffffffffffffffffffffffffffffffffffffff16815260200190815260200160002060010160009054906101000a900473ffffffffffffffffffffffffffffffffffffffff1673ffffffffffffffffffffffffffffffffffffffff1614610bb6576040517f08c379a00000000000000000000000000000000000000000000000000000000081526004018080602001828103825260188152602001807f466f672041646472657373204e6f74205665726966696564000000000000000081525060200191505060405180910390fd5b8073ffffffffffffffffffffffffffffffffffffffff16600260008573ffffffffffffffffffffffffffffffffffffffff1673ffffffffffffffffffffffffffffffffffffffff16815260200190815260200160002060030160009054906101000a900473ffffffffffffffffffffffffffffffffffffffff1673ffffffffffffffffffffffffffffffffffffffff1614610cb9576040517f08c379a000000000000000000000000000000000000000000000000000000000815260040180806020018281038252601d8152602001807f466f672d4e6f6465204d617070696e67204e6f7420566572696669656400000081525060200191505060405180910390fd5b6040518060a001604052808581526020018381526020018660ff1681526020018473ffffffffffffffffffffffffffffffffffffffff1681526020018273ffffffffffffffffffffffffffffffffffffffff16815250600260008573ffffffffffffffffffffffffffffffffffffffff1673ffffffffffffffffffffffffffffffffffffffff168152602001908152602001600020600082015181600001556020820151816001015560408201518160020160006101000a81548160ff021916908360ff16021790555060608201518160020160016101000a81548173ffffffffffffffffffffffffffffffffffffffff021916908373ffffffffffffffffffffffffffffffffffffffff16021790555060808201518160030160006101000a81548173ffffffffffffffffffffffffffffffffffffffff021916908373ffffffffffffffffffffffffffffffffffffffff16021790555090505084600660008573ffffffffffffffffffffffffffffffffffffffff1673ffffffffffffffffffffffffffffffffffffffff16815260200190815260200160002060006101000a81548160ff021916908360ff1602179055505050505050565b60046020528060005260406000206000915090505481565b60003390508073ffffffffffffffffffffffffffffffffffffffff16600560008473ffffffffffffffffffffffffffffffffffffffff1673ffffffffffffffffffffffffffffffffffffffff16815260200190815260200160002060009054906101000a900473ffffffffffffffffffffffffffffffffffffffff1673ffffffffffffffffffffffffffffffffffffffff1614610f73576040517f08c379a000000000000000000000000000000000000000000000000000000000815260040180806020018281038252602f815260200180611523602f913960400191505060405180910390fd5b600260008373ffffffffffffffffffffffffffffffffffffffff1673ffffffffffffffffffffffffffffffffffffffff16815260200190815260200160002060008082016000905560018201600090556002820160006101000a81549060ff02191690556002820160016101000a81549073ffffffffffffffffffffffffffffffffffffffff02191690556003820160006101000a81549073ffffffffffffffffffffffffffffffffffffffff021916905550506000808154809291906001900391905055505050565b60066020528060005260406000206000915054906101000a900460ff1681565b60015481565b60003390508073ffffffffffffffffffffffffffffffffffffffff16600260008373ffffffffffffffffffffffffffffffffffffffff1673ffffffffffffffffffffffffffffffffffffffff16815260200190815260200160002060020160019054906101000a900473ffffffffffffffffffffffffffffffffffffffff1673ffffffffffffffffffffffffffffffffffffffff16141561114f576040517f08c379a00000000000000000000000000000000000000000000000000000000081526004018080602001828103825260308152602001806114f36030913960400191505060405180910390fd5b8073ffffffffffffffffffffffffffffffffffffffff16600360008373ffffffffffffffffffffffffffffffffffffffff1673ffffffffffffffffffffffffffffffffffffffff16815260200190815260200160002060010160009054906101000a900473ffffffffffffffffffffffffffffffffffffffff1673ffffffffffffffffffffffffffffffffffffffff161415611253576040517f08c379a000000000000000000000000000000000000000000000000000000000815260040180806020018281038252601e8152602001807f54686973206973205265676973746572656420417320466f67204e6f6465000081525060200191505060405180910390fd5b83600460008681526020019081526020016000205414156112bf576040517f08c379a00000000000000000000000000000000000000000000000000000000081526004018080602001828103825260248152602001806114cf6024913960400191505060405180910390fd5b6040518060a00160405280858152602001848152602001600060ff1681526020018273ffffffffffffffffffffffffffffffffffffffff1681526020018373ffffffffffffffffffffffffffffffffffffffff16815250600260008373ffffffffffffffffffffffffffffffffffffffff1673ffffffffffffffffffffffffffffffffffffffff168152602001908152602001600020600082015181600001556020820151816001015560408201518160020160006101000a81548160ff021916908360ff16021790555060608201518160020160016101000a81548173ffffffffffffffffffffffffffffffffffffffff021916908373ffffffffffffffffffffffffffffffffffffffff16021790555060808201518160030160006101000a81548173ffffffffffffffffffffffffffffffffffffffff021916908373ffffffffffffffffffffffffffffffffffffffff16021790555090505083600460008681526020019081526020016000208190555081600560008373ffffffffffffffffffffffffffffffffffffffff1673ffffffffffffffffffffffffffffffffffffffff16815260200190815260200160002060006101000a81548173ffffffffffffffffffffffffffffffffffffffff021916908373ffffffffffffffffffffffffffffffffffffffff160217905550600080815480929190600101919050555050505050565b6000548156fe546865204e6f64652057697468205468697320494420416c726561647920457869737473546865204e6f646520576974682054686973205075626c6963204164647265737320416c726561647920457869737473536f727279212050726f766964656420466f672d4e6f6465204d617070696e67206973204e6f7420436f7272656374a265627a7a7231582017fe5e953abe2e5c981eb27ae2367f5929dfdb0170973b97162f759d50341b3664736f6c63430005100032",
  "source": "pragma solidity ^0.5.1;\n\ncontract BMCTM {\n    \n    //creating IoT Device Structure for Storing Node Related Values\n    struct ioTNode {\n        uint256 nodeName;\n        uint256 nodeSystem;\n        uint8 nodeTrust;\n        address nodeAddress;\n        address fogAddress;\n    }\n    \n    //Creating Fog Structure for Storing Node Related Values\n    struct fogNode {\n        uint256 fogName;\n        address fogAddress;\n    }\n    \n    //To check Total Number of IoT Devices\n    uint256 public totalIoTDevice = 0; \n    uint256 public totalFogNodes = 0;\n    \n    //To Store Values in Hash Tables\n    mapping (address => ioTNode) public iotNodes; // Controlling IoT Devices Data\n    mapping (address => fogNode) public fogNodes; // Controlling Fog Data\n    mapping (uint256 => uint256) public nodeIds; //Controlling Redundency of IoT Nodes IDs\n    mapping (address => address) public fogDeviceMapping; //Saving Fog-Device Mapping\n    mapping (address => uint8) public trustMapping; //Saving Device-Trust Values for Decreasing Gas Consumption on Trust Evaluation for IoT Device\n    \n    //Function for Adding Fog Nodes\n    function addFogNode(uint256 _fogName) public {\n        \n        address _FogAddress = msg.sender;\n        \n        if(fogNodes[_FogAddress].fogAddress == _FogAddress) {\n            revert('This Fog Node Already Exists');\n        } else if(iotNodes[_FogAddress].nodeAddress == _FogAddress) {\n            revert('This is Registered As IoT Node');\n        } else {\n            fogNodes[_FogAddress] = fogNode({fogName:_fogName,fogAddress:_FogAddress});\n            totalFogNodes++;\n        }\n        \n    }\n    \n    //Function for Adding IoT Devices with Initial Trust value = 0\n    function addNode (uint256 _nodeName, uint256 _nodeSystem, address _fogAddress) public {\n            \n            address _nodeAddress = msg.sender;  \n            \n            if(iotNodes[_nodeAddress].nodeAddress == _nodeAddress) {\n                revert('The Node With This Public Address Already Exists');\n            } else if(fogNodes[_nodeAddress].fogAddress == _nodeAddress) {\n                revert('This is Registered As Fog Node');\n            }\n            else if (nodeIds[_nodeName] ==_nodeName) {\n                revert('The Node With This ID Already Exists');\n            } else {\n                iotNodes[_nodeAddress] = ioTNode({nodeName:_nodeName,nodeSystem:_nodeSystem,nodeTrust:0,nodeAddress:_nodeAddress,fogAddress:_fogAddress});\n                nodeIds[_nodeName] = _nodeName;\n                fogDeviceMapping[_nodeAddress] = _fogAddress;\n                totalIoTDevice++;\n            }\n    }\n    \n    //Function for Editing Trust Value for Each IoT Devices\n    function addDeviceTrust (uint8 _nodeTrust, uint256 _nodeName, address _nodeAddress, uint256 _nodeSystem) public {\n        address _fogAddress = msg.sender;\n        if(fogNodes[_fogAddress].fogAddress != _fogAddress) {\n            revert('Fog Address Not Verified');\n        } else if(iotNodes[_nodeAddress].fogAddress != _fogAddress) {\n            revert('Fog-Node Mapping Not Verified');\n        } else {\n           // if(true) {\n             //   revert('Fog Signature Not Verified');\n            //} else {\n                iotNodes[_nodeAddress] = ioTNode({nodeName:_nodeName,nodeSystem:_nodeSystem,nodeTrust:_nodeTrust,nodeAddress:_nodeAddress,fogAddress:_fogAddress});\n                trustMapping[_nodeAddress] = _nodeTrust;\n            //}\n        }\n    }\n    \n    //Fucntion to Verify Authority Signatures\n    function verifySign () internal returns (bool) {\n        //To be Implemented\n    }\n    \n    //Function Remove IoTDevice\n    function removeNode (address _nodeAddress) public {\n        address _fogAddress = msg.sender;\n        \n        if(fogDeviceMapping[_nodeAddress] != _fogAddress) {\n            revert('Sorry! Provided Fog-Node Mapping is Not Correct');\n        } else {\n            delete iotNodes[_nodeAddress];\n            totalIoTDevice--;\n        }\n    }\n    \n    //Function Checking Trust\n    function verifyTrust(address _nodeAddress) public view returns(uint8 nodeTrust) {\n        \n        address senderNodeAddress = msg.sender;\n        \n        if(iotNodes[senderNodeAddress].nodeName == 0) {\n            revert('Requesting Node Not Verfied');\n        } else if (iotNodes[_nodeAddress].nodeName == 0) {\n            revert('Requested Node Not Found');\n        } else {\n                return (iotNodes[_nodeAddress].nodeTrust);\n        }\n    }\n    \n    //Function for comparing strings \n    function compareStrings (string memory a, string memory b)  internal pure returns (bool) {\n        if ( keccak256(abi.encodePacked(a)) == keccak256(abi.encodePacked(b)) ) {\n            return true;\n        } \n        else {\n            return false;\n        }\n   }\n}\n",
  "sourcePath": "E:/Implementation/contract/contracts/BMCTM.sol",
  "compiler": {
    "name": "solc",
    "version": "0.5.16+commit.9c3226ce.Emscripten.clang"
  },
  "schemaVersion": "3.0.21",
  "updatedAt": "2020-01-20T04:14:36.456Z",
  "networkType": "ethereum",
  "devdoc": {
    "methods": {}
  },
  "userdoc": {
    "methods": {}
  }
}